:020000040800F2
:10000000D81400207503000871030008710300086C
:10001000710300087103000871030008000000006C
:100020000000000000000000000000007103000854
:10003000710300080000000071030008910C000823
:1000400071030008710300087103000871030008C0
:1000500071030008710300087103000871030008B0
:1000600071030008710300087103000871030008A0
:100070007103000871030008710300087103000890
:100080007103000871030008710300087103000880
:100090007103000871030008710300087103000870
:1000A0007103000871030008710300087103000860
:1000B000910B000871030008710300087103000828
:1000C0007103000871030008710300087103000840
:1000D0007103000871030008990A0008B9090008B3
:1000E0007103000871030008710300087103000820
:1000F0007103000871030008710300087103000810
:1001000071030008710300087103000871030008FF
:1001100071030008710300087103000871030008EF
:1001200071030008710300087103000871030008DF
:1001300071030008710300087103000871030008CF
:1001400071030008710300087103000871030008BF
:10015000710300087103000871030008150B000803
:10016000710300087103000871030008710300089F
:10017000710300087103000871030008710300088F
:10018000710300087103000810B5054C237833B9DA
:10019000044B13B10448AFF300800123237010BD5A
:1001A0004804002000000000F417000808B5064BC2
:1001B0001BB106480649AFF300800648036813B137
:1001C000054B03B1984708BD00000000F417000874
:1001D0004C0400204404002000000000F0B50D464F
:1001E000018AEF882E89AB88AA8989B2044621F456
:1001F0004051394368892182A189334389B203433D
:1002000021F4B05121F00C019BB20B43A381A38ACE
:100210009BB223F44073134385B0A382684600F079
:10022000CBFC1D4B9C4229D003F580639C4225D01A
:10023000029BA2892968A08912B2002A03EB8303DA
:10024000B4BF4900890003EB8303B3FBF1F2134908
:1002500000B2A1FB02535B096425002803FB1522B1
:100260004FEA03130CDB12013232A1FB0251C1F33E
:1002700043110B439BB2238105B0F0BD039BD8E72C
:10028000D2003232A1FB0201C1F342110B439BB2F7
:10029000238105B0F0BD00BF001001401F85EB5168
:1002A000838929B923F400531B041B0C83817047F5
:1002B0009BB243F400538381704700BFC1F3080130
:1002C000818070478088C0F30800704701F01F03E9
:1002D00010B4C1F342110124A14204FA03F310D077
:1002E00002290CBF1030143004682AB924EA030331
:1002F00003605DF8044B7047234303605DF8044BD3
:1003000070470C30F0E700BF038819420CBF002093
:100310000120704710B4C1F34213012401F01F0201
:10032000A34204FA02F217D0022B0CBF038A838A7D
:100330009BB21340028892B253B1090A012303FA17
:1003400001F111420CBF002001205DF8044B704701
:1003500018465DF8044B704783899BB21340E9E768
:10036000090A012303FA01F1C94389B201807047E8
:10037000FEE700BF08B51148114B984207D2C243AF
:10038000134423F0030204320E4901F00DF90E4824
:100390000E494FF000028842B8BF40F8042BFFF628
:1003A000FAAFDFF82C00016841F47001016000F041
:1003B000F1FCBDE8084000F085BA00BF0000002055
:1003C00048040020F417000848040020D80C00203E
:1003D00088ED00E0274B10B4840000211A1943F87F
:1003E00020109160116191690A2918DD0A211161BB
:1003F000234400221A629A621A639A6B0A2A24DC46
:100400009A6B0A321CDB9A6B002A9A6B29DD1A63FD
:100410009A6B5DF8044BC2F10A021A627047916947
:100420000A3102DA0A219160E2E7916900299169B3
:1004300010DD11619269C2F10A0243F82020D7E76A
:100440000A229A625DF8044B70470A221A635DF82B
:10045000044B70474942916092690A3243F8202068
:10046000C6E752429A629A6B5DF8044B0A321A62EE
:10047000704700BF640400203B4B81005A18F0B461
:10048000956A9468384FA542B4BF966A9668C200D0
:10049000151803EB85055C182E64266AA568AE4224
:1004A00002EB000503EB8505B4BF266AA6686E64FF
:1004B0005C18266BA568AE4202EB000503EB8505D0
:1004C000B4BF266BA668AE645C18A66A53F82050C9
:1004D000AE4202EB000503EB8505ACBF57F8206088
:1004E000A66AEE645C18204F266A53F82050AE428C
:1004F00002EB000503EB8505ACBF57F82060266AC8
:100500002E655C18184F266B53F82050AE4202EB54
:10051000000503EB8505ACBF57F82060266B6E65C0
:100520005C18A66A2569AE4202EB0005B4BFA66A54
:10053000266903EB85055C18AE65266A2569AE421F
:10054000B4BF256A2569141803EB84041944E565D2
:100550000D6B0C691044A54203EB8003B4BF096B1B
:1005600009691966F0BC7047640400207F4BC10024
:100570002DE9F0017E4E7F4F0C18820003EB8404BE
:100580000025356003EB020C75603D607D60256DD4
:10059000CCF88850D4F84CC0656CAC45CCBFD4F8CE
:1005A0004CC0D4F844C00D189C1803EB8505C4F862
:1005B00090C0D4F89080D5F85CC0E045CCBFD4F8AA
:1005C00090C0D5F85CC09C180D1803EB8505C4F8E5
:1005D00090C0D4F89080D5F854C0E045CCBFD4F892
:1005E00090C0D5F854C09C180D1803EB8505C4F8CD
:1005F00090C0D4F89080D5F840C0E045CCBFD4F886
:1006000090C0D5F840C09C180D1803EB8505C4F8C0
:1006100090C0D4F89080D5F860C0E045CCBFD4F845
:1006200090C0D5F860C00C189D1803EB8404C5F881
:1006300090C0D4F848C0A56DAC45CCBFD4F848C034
:10064000D4F858C00C1803EB84049D18C5F898C062
:10065000D4F848C0A56DAC45CCBFD4F848C0D4F898
:1006600058C00D189C1803EB8505C4F8A0C0D4F839
:10067000A080D5F850C0E045CCBFD4F8A0C0D5F8D4
:1006800050C00C189D1803EB8404C5F8A0C0D4F822
:1006900040C0656CAC45CCBFD4F840C0D4F844C071
:1006A0000D189C1803EB8505C4F8A8C0D4F8A880E1
:1006B000D5F85CC0E045CCBFD4F8A8C0D5F85CC084
:1006C0009C180D1803EB8505C4F8A8C0D4F8A880C1
:1006D000D5F860C0E045CCBFD4F8A8502D6EDFF847
:1006E0009CC09C18014403EB8101C4F8A850CD6C58
:1006F0004C6D1344A542CCBFC96C496DC3F8B01012
:10070000D3F88810D3F89040D3F898201A4D01EB15
:10071000440102EB42020A4447F82020D3F8A040EB
:10072000D3F8A810D3F8B02004EB440401EB410146
:1007300004EB410102EBC2020A4446F82020D3F840
:100740008840D3F89020D3F8981022440A444CF8FB
:100750002020D3F8A040D3F8A810D3F8B020631815
:10076000134445F82030BDE8F001704764040020D0
:10077000D00C0020B40C0020BC0C0020C80C0020C1
:100780004A4A52F820302DE9F0412BBB484C8300F7
:100790002344474AD3F8C050D3F8B8102944C3F8CB
:1007A000C01000283CD1D2F8C030002BD2F8C030A5
:1007B00055DBFE2BC8BFFE233E48C8BFC2F8C03081
:1007C000FE2100F0E1FCD4F8C0103A48C1F1FE016E
:1007D000BDE8F04100F0DABC374D354C55F820301B
:1007E00013B38300E118354ED1F818C056F82080B5
:1007F00052F82060324F08FB0CF292FBF6F2C1F87F
:10080000B820D1F8B8608A6B57F8207055F820509E
:1008100007FB02F292FBF5F23244C1F8B820B7E7C9
:10082000012803D0BDE8F0818300B1E7D2F8C430DD
:10083000002BD2F8C43025DBFE2BC8BFFE231D4899
:10084000C8BFC2F8C430FE2100F0A4FCD4F8C41024
:100850001848C1F1FE01BDE8F04100F099BCFE333B
:10086000B8BF6FF0FD031348B8BFC2F8C030FE2117
:1008700000F08CFCD4F8C0100E48FE31BDE8F04109
:1008800000F082BCFE33B8BF6FF0FD030948B8BF6B
:10089000C2F8C430FE2100F07BFCD4F8C410054837
:1008A000FE31BDE8F04100F075BC00BFC80C00206F
:1008B0006404002000080040BC0C0020B40C0020A0
:1008C000D00C00202DE9F04100F074FC00F05EFD3A
:1008D00000F028FE00F0F2FD00F0A2FC00F004FDA4
:1008E00000F0D0FC3048314C4FF4804100F03CFA2D
:1008F0004FF400412C4800F037FA00237F220121F9
:10090000C4F8C8301E4684F8CC30C4F8D01084F83F
:10091000CD202746A04607E0D4F8D830012B21D0BF
:10092000D4F8DC50012D2FD0D4F8D430012BF3D1E2
:10093000C7F8D4601E488021FFF7E6FC0028F9D0F4
:100940001B480021FFF7BAFC1A488021FFF7DCFCA6
:100950000028F9D017480021FFF7B0FCD4F8D830B0
:10096000012BDDD10020FFF735FD0020FFF784FDCE
:100970000020FFF7FBFD0020FFF702FFC7F8D8605B
:10098000D4F8DC50012DCFD12846FFF723FD2846AF
:10099000FFF772FD2846FFF7E9FD2846FFF7F0FE56
:1009A000C8F8DC60C0E700BF000402406404002017
:1009B000004400400014014010B5344840F2255175
:1009C000FFF7A8FC012800D010BD3048FFF77AFCE3
:1009D0002F4BC0B283F8E00093F8E01093F8CD20DD
:1009E00091421FD0D3F8D010D3F8E400284A490030
:1009F0004C1C844232D0D2F8E4000231814239D01A
:100A0000D2F8E41021BBD3F8E420214B052A13D0FF
:100A10001E4840F22551FFF7A3FC1E4B8022C3F86D
:100A2000842110BDD3F8E420002ADBD1D3F8E420E0
:100A30000132C3F8E420E6E7D3F8E820C3F8F02059
:100A4000D3F8EC20C3F8F4200022C3F8E420DFE759
:100A5000D2F8E4100131C2F8E410D4E792F8E010C3
:100A600011F0800F92F8E01018BFFF394900C2F86A
:100A7000E810DBE792F8E01011F0800F92F8E01038
:100A800018BFFF394900C2F8EC10CFE7004800401A
:100A90006404002000E100E008B51B4840F2255145
:100AA000FFF738FC012800D008BD1748FFF70AFC03
:100AB000164BC3F8F800D3F8F820802A04DDD3F8E9
:100AC000F820FF3AC3F8F820D3F8F8200E48520077
:100AD000C3F8F820D3F8F010D3F8F8208A1A9A61F6
:100AE0009969D3F800218A1A9A639A69C3F8002198
:100AF00040F225510122C3F8D820FFF731FC044B06
:100B00004022C3F8842108BD004400406404002052
:100B100000E100E008B51B4840F22551FFF7FAFB61
:100B2000012800D008BD1748FFF7CCFB164BC3F8CF
:100B3000FC00D3F8FC20802A04DDD3F8FC20FF3A27
:100B4000C3F8FC20D3F8FC200E485200C3F8FC2068
:100B5000D3F8F410D3F8FC208A1ADA61D969D3F8F3
:100B600004218A1ADA63DA69C3F8042140F22551B4
:100B70000122C3F8DC20FFF7F3FB044B8022C3F80B
:100B8000882108BD001401406404002000E100E059
:100B900008B5074A012319464FF08040C2F8D43007
:100BA00000F004FB034B4FF08052C3F8802108BDD6
:100BB0006404002000E100E01F4A936803F00C0386
:100BC000042B10B41BD0082B1CD01C4B03601A49FB
:100BD0001B4A8C68C4F30314145DE34043608C68C3
:100BE000C4F38224145D23FA04F4846089685DF8F8
:100BF000044BC1F34231525CD340C3607047114B88
:100C00000360E4E754685168526863024CBF0D4BBF
:100C10000A4B01F03F01C2F38812B3FBF1F303FB6F
:100C200002F3054A5268C2F3014201325200B3FB9B
:100C3000F2F30360CBE700BF003802400024F40069
:100C40000000002040787D01044B1A6B19B922EA9C
:100C50000000186370471043186370470038024063
:100C6000044B1A6C19B922EA00001864704710434B
:100C70001864704700380240044B5A6C19B922EAD4
:100C800000005864704710435864704700380240B1
:100C9000044B5A6801325A601A6812B11A68013A54
:100CA0001A607047A80C002000222DE9F0071346B7
:100CB0000E6801274FF0030804E00133102B02F106
:100CC00002022ED007FA03F404EA0605A542F4D185
:100CD000D0F8009091F804C008FA02F4E44304EA62
:100CE0000909C0F80090D0F800900CFA02FA0CF153
:100CF000FF3C5FFA8CFC4AEA0909BCF1010FC0F81D
:100D0000009011D9C56891F807C02C40C460C5682F
:100D10000CFA02F401332C43102BC46002F10202DE
:100D2000D0D1BDE8F0077047D0F808A091F8059041
:100D300091F806C004EA0A0AC0F808A0D0F808A092
:100D400009FA02F949EA0A09C0F80890D0F80490B3
:100D500029EA0505456045680CFA03FC1FFA8CFC7E
:100D60004CEA05054560CDE741837047CB0800EBB1
:100D7000830001F0070110B48900046A0F238B403F
:100D800024EA03030362036A5DF8044B8A401343B9
:100D900003627047284A294BD2F88800284940F45A
:100DA000700030B4C2F888001A68264D264C002026
:100DB00042F001021A6098601A6822F0847222F4EC
:100DC00080321A605D601A6822F480221A60D8604E
:100DD0001A6C42F080521A640A6842F480420A6037
:100DE0009A689A609A6842F400429A609A6842F45B
:100DF000A0529A605C601A6842F080721A601946CC
:100E00000B680E4A9B01FBD5104B40F2056119603F
:100E1000936823F003039360936843F002039360A5
:100E2000936803F00C03082BFAD1034B4FF00062D8
:100E30009A6030BC704700BF00ED00E0003802400F
:100E4000007000401030002410540007003C0240A5
:100E5000C378F0B463B90378194A5909203103F013
:100E60001F03012000FA03F342F82130F0BC704761
:100E7000144B4778DA68857803781149D243C2F376
:100E80000222C2F104040F26E4B207FA04F446FA7F
:100E900002F2E4B22A40224303F1604303F56143C6
:100EA0001201D2B283F800230378012003F01F025D
:100EB0005B0900FA02F241F82320F0BC704700BF42
:100EC00000E100E000ED00E0234A0388904270B4A6
:100ED0009BB212D002F5806290420ED0B0F1804FEA
:100EE0000BD0A2F58032904207D002F5806290428A
:100EF00003D002F58062904203D14A8823F0700348
:100F00001343164A90421ED002F5806290421AD0D6
:100F10000E894D680C8823F4407302F56C429BB235
:100F2000334390420380C562048506D00C4B98423F
:100F300003D00123838270BC70478B7A0386012320
:100F4000838270BC704703800B884A68C262038545
:100F50000123838270BC70470000014000100040F4
:100F600000040140038829B923F001031B041B0C72
:100F7000038070479BB243F001030380704700BFBA
:100F8000F0B4048CB1F802C08F890E881B4D24F098
:100F900001042404240C0484028C8488038B22F032
:100FA000020223F0730312044CEA07071B04120C1D
:100FB000BFB21B0CA84247EA0202A4B243EA0603EE
:100FC0000AD005F58065A84206D08968848003832D
:100FD000F0BC416302847047B1F80EC04F8A0D8A9D
:100FE0008E8822F0080242EA0C023D4324F4407449
:100FF00022F00402ADB232432C43E6E70000014088
:10100000F0B4048CB1F80CC04F880E881F4D24F04A
:1010100010042404240C0484028C8488038B22F0A2
:101020002002120423F4E643120C1B0442EA0C12C1
:101030001B0C42EA071243EA0623A84292B2A4B26A
:101040009BB20AD005F58065A84206D089688480E5
:101050000383F0BC816302847047CD89B1F810C06E
:101060008F884E8A22F0800292B242EA051224F45E
:1010700040644FF6BF75154044EA8C0445EA0712F8
:1010800044EA860492B2A4B2E0E700BF0000014047
:10109000F0B4048CB1F80CC04F880E881E4D24F4B7
:1010A00080742404240C0484028C8488838B22F4AE
:1010B00000721204120C23F0730342EA0C221B0488
:1010C00042EA07221B0CA84292B2A4B243EA0603EA
:1010D0000AD005F58065A84206D08968848083839C
:1010E000F0BCC16302847047CD89B1F810C08F880D
:1010F0004E8A22F4006292B242EA052224F440545D
:101100004FF6FF35154044EA0C1445EA072244EA3D
:10111000061492B2A4B2E0E700000140F0B4048CDF
:10112000B1F80CC04F880E88164D24F48054240466
:10113000240C0484028C8488838B22F400521204D1
:1011400023F4E643120C1B0442EA0C321B0C42EA65
:10115000073243EA0623A84292B2A4B29BB20AD055
:1011600005F58065A84206D0896884808383F0BC39
:101170000164028470470D8A24F4804444EA851493
:10118000A4B2F1E7000001404163704781637047FA
:10119000C16370470164704783899BB21AB923EA1F
:1011A000010181817047194381817047C94389B228
:1011B00001827047012008B50146FFF745FD022076
:1011C0000121FFF741FD04200121FFF73DFD08202B
:1011D0000121FFF739FD10200121FFF735FD202007
:1011E0000121FFF731FD4FF480400121FFF744FD5D
:1011F0004FF400300121FFF733FD4FF4802001212F
:10120000FFF72EFD20200121FFF736FD04200121EC
:10121000FFF726FD01200146BDE80840FFF720BD8D
:1012200070B5174E86B000244FF4164202A930461E
:101230000C2301250292ADF81230ADF81440ADF840
:101240001040ADF80E40ADF80C40FEF7C7FF262366
:1012500001A88DF804308DF806408DF807508DF800
:101260000550FFF7F5FD30462A4640F22551FFF7BD
:101270002DF830462946FFF713F806B070BD00BFC1
:101280000044004070B5174E86B000244FF416425B
:1012900002A930460C2301250292ADF81230ADF8B8
:1012A0001440ADF81040ADF80E40ADF80C40FEF71C
:1012B00095FF472301A88DF804308DF806408DF87E
:1012C00007508DF80550FFF7C3FD30462A4640F21F
:1012D0002551FEF7FBFF30462946FEF7E1FF06B039
:1012E00070BD00BF00140140F0B5264F264E89B0F6
:1012F0004FF0020C4FF4406E0024012503233846C2
:101300000A2107228DF80CC0CDF808E08DF80D30C9
:101310008DF80F508DF80E40FFF728FD3846072254
:101320000B21FFF723FD384602A9FFF7BDFC4FF460
:10133000164204A930460C230492ADF81A30ADF8D9
:101340001C40ADF81840ADF81640ADF81440FEF75B
:1013500045FF272301A88DF804308DF806408DF84D
:1013600007508DF80550FFF773FD30462A4640F2CE
:101370002551FEF7ABFF30462946FEF791FF09B035
:10138000F0BD00BF00080240004800402DE9F047D2
:10139000464FDFF820A1DFF820918CB0002403260F
:1013A0004FF0010838464FF4404369460225009348
:1013B0008DF804808DF805608DF807408DF80640A3
:1013C000FFF772FC384640F6034302A902938DF8FA
:1013D0000C408DF80D608DF80F808DF80E40FFF7F2
:1013E00063FC4FF4707338462A46062104938DF847
:1013F00017408DF816408DF815608DF81450FFF7E2
:10140000B5FC38462A460721FFF7B0FC38462A4685
:101410000821FFF7ABFC2A4638460921FFF7A6FC56
:10142000384604A9FFF740FC0C2329465046072202
:1014300006938DF81C508DF81D608DF81F808DF877
:101440001E40FFF793FC504631460722FFF78EFC03
:10145000504606A9FFF728FCC0234846062108226B
:1014600008938DF824508DF825608DF827808DF82D
:101470002640FFF77BFC082248460721FFF776FC51
:10148000484608A9FFF710FC042309488DF82D6091
:101490000AA98DF82C408DF82F408DF82E400A9324
:1014A000FFF702FC0CB0BDE8F08700BF000402406B
:1014B000000C0240000002400008024030B587B036
:1014C000002502A942F2CF0220234FF080400124E0
:1014D000ADF808200393ADF81050ADF80A50FFF7AF
:1014E000F3FC02231C2201A88DF805308DF804209E
:1014F0008DF806508DF80740FFF7AAFC21462246DA
:101500004FF08040FFF748FE054B4FF080522146D8
:101510001A604FF08040FFF725FD07B030BD00BFD7
:1015200000E100E070B51F4C88B063220025204622
:10153000FF236946ADF8002001930126ADF808505D
:10154000ADF80250FFF7C0FC6023204603A9ADF8B8
:101550000C30ADF81850ADF80E60FFF711FD2046C5
:1015600003A9FFF74DFD204603A9FFF791FD204693
:1015700003A9FFF7D3FD20463146FFF7F3FC2046D1
:101580002946FFF701FE20462946FFF7FFFD2046CA
:101590002946FFF7FDFD20462946FFF7FBFD08B071
:1015A00070BD00BF00080040844641EA000313F00C
:1015B00003036DD1403A41D351F8043B40F8043B5A
:1015C00051F8043B40F8043B51F8043B40F8043B1D
:1015D00051F8043B40F8043B51F8043B40F8043B0D
:1015E00051F8043B40F8043B51F8043B40F8043BFD
:1015F00051F8043B40F8043B51F8043B40F8043BED
:1016000051F8043B40F8043B51F8043B40F8043BDC
:1016100051F8043B40F8043B51F8043B40F8043BCC
:1016200051F8043B40F8043B51F8043B40F8043BBC
:1016300051F8043B40F8043B403ABDD2303211D35C
:1016400051F8043B40F8043B51F8043B40F8043B9C
:1016500051F8043B40F8043B51F8043B40F8043B8C
:10166000103AEDD20C3205D351F8043B40F8043B5C
:10167000043AF9D2043208D0D2071CBF11F8013B5A
:1016800000F8013B01D30B8803806046704700BF20
:10169000082A13D38B078DD010F003038AD0C3F12F
:1016A0000403D21ADB071CBF11F8013B00F8013B11
:1016B00080D331F8023B20F8023B7BE7043AD9D3D0
:1016C000013A11F8013B00F8013BF9D20B780370A5
:1016D0004B7843708B78837060467047024B13B130
:1016E000024800F005B8704700000000FD16000831
:1016F000014600200246034600F018B838B5094DEF
:10170000094C641BA41018BF05EB840505D0013CEF
:1017100055F8043D9847002CF9D1BDE8384000F059
:101720005FB800BF4004002044040020F0B5274CFF
:101730002668D6F8484185B00746002C41D0656838
:101740001F2D1EDD224818B94FF0FF3005B0F0BD47
:101750004FF4C870039102920193AFF30080039994
:10176000029A019B04460028EED0D6F84851256025
:10177000002060600546C6F84841C4F88801C4F8F6
:101780008C013FB9AB1C00200135656044F8231083
:1017900005B0F0BD04EB85004FF0010CC0F88820C7
:1017A000D4F888610CFA05F21643022FC4F8886158
:1017B000C0F80831E6D1D4F88C311A43C4F88C2132
:1017C000E0E706F5A674C6F84841B8E7F017000848
:1017D00000000000F8B500BFF8BC08BC9E4670478A
:1017E000F8B500BFF8BC08BC9E4670474300000037
:0417F00010000020C5
:1017F40000000000010203040102030406070809B3
:1018040000000000FC02002064030020CC03002040
:1018140000000000000000000000000000000000C4
:1018240000000000000000000000000000000000B4
:1018340000000000EC170008000000000000000099
:101844000000000000000000000000000000000094
:101854000000000000000000000000000000000084
:101864000000000000000000000000000000000074
:101874000000000000000000000000000000000064
:101884000000000000000000000000000000000054
:101894000000000000000000000000000000000044
:1018A4000000000000000000010000000000000033
:1018B4000E33CDAB34126DE6ECDE05000B000000F8
:1018C4000000000000000000000000000000000014
:1018D4000000000000000000000000000000000004
:1018E40000000000000000000000000000000000F4
:1018F40000000000000000000000000000000000E4
:101C24000000000000000000DD160008AD010008FF
:081C3400890100080000000016
:0400000508000000EF
:00000001FF
